:1000000014C1000042C1000040C100003EC1000018
:100010003CC100003AC1000038C1000036C10000F8
:1000200034C1000010C400000EC400000CC4000065
:100030002CC100002AC1000028C1000026C1000018
:1000400024C1000022C1000020C100001EC1000028
:100050001CC100001AC1000018C1000084C70000C4
:1000600014C100001CC30000F1C200000EC100005A
:100070000CC100000AC1000008C1000006C1000058
:1000800004C1000002C1000000C10000FEC0000069
:10009000FCC00000FAC00000F8C00000DEC3000091
:1000A000F4C00000F2C00000F0C00000EEC000008C
:1000B000ECC00000EAC00000E8C00000E6C000009C
:1000C000E4C00000E2C00000E0C00000DEC00000AC
:1000D000DCC00000DAC00000D8C00000D6C00000BC
:1000E000D4C000009B059E058D0591059705D5059B
:1000F000A205A605AC05B005B405BA05BE05C20546
:10010000D505C805CC05D005000021002400270036
:100110002A002D0030003300010100000401070116
:100120000A0100002200250028002B002E003100CB
:10013000340002010000050108010B01000020004D
:100140002300260029002C002F00320000010000AF
:10015000030106010901050505050705080808084A
:10016000020202020A0A080804040404010101014F
:10017000010101010303030303030303040707074A
:100180000C0C0C0C0C0C0C0C0202020206060606EF
:10019000060606060B0B0B0B0B0B0B0B01021020BC
:1001A00020080810204010204080020102010804AD
:1001B0000201010204081020408080402010080441
:1001C000020180040201804020100804020108049A
:1001D00002010102040810204080010204081020DE
:1001E000408000000A0B02090C0D0E0807030401F1
:1001F00000000000000000000000000000000000FF
:1002000000000000000000000000000000001211CB
:1002100010000000000000000000000000000000CE
:100220000000000000000000FF0911241FBECFEFF6
:10023000D1E2DEBFCDBF00E00CBF12E0A0E0B2E033
:10024000E8E8F5E100E00BBF02C007900D92AA3587
:10025000B107D9F724E0AAE5B2E001C01D92AD31A3
:10026000B207E1F711E0C5E1D1E000E006C0219757
:100270000109802FFE010E94B60AC431D10780E037
:100280000807A9F7BAD60C94C20ABACECF92DF9269
:10029000EF92FF920F931F93CF93DF936C017A013C
:1002A0008B01C0E0D0E0CE15DF0589F0D8016D915B
:1002B0008D01D601ED91FC910190F081E02DC601F8
:1002C0001995892B11F47E0102C02196ECCFC7014C
:1002D000DF91CF911F910F91FF90EF90DF90CF9022
:1002E0000895FC01918D828D981761F0828DDF0158
:1002F000A80FB11D5D968C91928D9F5F9F73928F19
:1003000090E008958FEF9FEF0895FC01918D828D0D
:10031000981731F0828DE80FF11D858D90E00895DA
:100320008FEF9FEF0895FC01918D228D892F90E032
:10033000805C9F4F821B91098F739927089580EFEE
:1003400092E0F1DF21E0892B09F420E0822F08956B
:10035000FC01848DDF01A80FB11DA35ABF4F2C9162
:10036000848D90E001968F739927848FA689B78931
:100370002C93A089B1898C9180648C93938D848D0A
:10038000981306C00288F389E02D80818F7D8083D9
:100390000895EF92FF920F931F93CF93DF93EC0199
:1003A00081E0888F9B8D8C8D981305C0E889F98931
:1003B000808185FD23C0F62E0B8D10E00F5F1F4F4F
:1003C0000F731127E02E8C8DE8120BC00FB607FCBF
:1003D000FACFE889F989808185FFF5CFCE01B8DFB2
:1003E000F2CF8B8DFE01E80FF11DE35AFF4FF08233
:1003F0000B8FEA89FB898081806207C0EE89FF89C3
:100400006083E889F98980818064808381E090E05D
:10041000DF91CF911F910F91FF90EF900895CF93AF
:10042000DF93EC01888D8823C1F0EA89FB89808104
:1004300085FD05C0A889B9898C9186FD0EC00FB6CF
:1004400007FCF5CF808185FFF2CFA889B9898C910F
:1004500085FFEDCFCE017CDFE8CFDF91CF9108950E
:1004600080E090E0892B19F06ADF811125C080E0DF
:1004700090E0892B41F080E090E0892B21F00E94F0
:10048000000081111CC080E090E0892B41F080E0E9
:1004900090E0892B21F00E940000811113C080E0C0
:1004A00090E0892BA1F080E090E0892B81F00E9400
:1004B000000081110AC008950E940000D8CF0E9458
:1004C0000000E1CF0E940000EACF0C9400000895E4
:1004D000089581E090E03091EF022091EE02321712
:1004E00010F480E090E091958195910908958091B4
:1004F000EF029091EE02891730F48F5F8093EF0244
:1005000080E090E008958FEF9FEF08958091EE02D4
:1005100090E02091EF02821B9109089585ED809370
:10052000BC008091BC0084FDFCCF1092EB020895CA
:1005300040917C02262F30E0240F311D21323105FD
:10054000DCF42091EB022430C9F4FC0180E090E05F
:10055000861758F430917C022191DC01A65ABD4FD8
:10056000A30FB11D2C930196F3CF80917C02680FED
:1005700060937C0280E0089581E0089582E0089510
:10058000CF92DF92EF92FF920F931F93CF93DF935F
:100590007C01262F972F8A018091C702882391F032
:1005A000C62FD72F6E01C40ED51ECC15DD0569F000
:1005B0006991D701ED91FC910190F081E02DC70187
:1005C0001995F3CF642F822FB3DFC801DF91CF914C
:1005D0001F910F91FF90EF90DF90CF900895CF93F0
:1005E000DF931F92CDB7DEB769832091C702222324
:1005F000D1F02091EC02203240F021E030E0FC010B
:100600003383228380E090E014C08091ED02E82FD4
:10061000F0E0E853FD4F998190838F5F8093ED0266
:100620008093EC0204C061E0CE01019681DF81E09D
:1006300090E00F90DF91CF910895862F642FF1C342
:10064000862F642F38C3862F0EC398D71F920F9220
:100650000FB60F9211240BB60F922F933F934F9327
:100660005F936F937F938F939F93AF93BF93EF931A
:10067000FF9380EF92E06CDEFF91EF91BF91AF911D
:100680009F918F917F916F915F914F913F912F91AA
:100690000F900BBE0F900FBE0F901F9018951F92DA
:1006A0000F920FB60F9211240BB60F922F938F93C8
:1006B0009F93EF93FF93E0910003F09101038081FA
:1006C000E0910603F091070382FD12C090818091B2
:1006D00009038F5F8F7320910A03821751F0E09115
:1006E0000903F0E0E051FD4F958F8093090301C0AD
:1006F0008081FF91EF919F918F912F910F900BBE71
:100700000F900FBE0F901F901895CF93FC01C481DE
:1007100021E02093C702C093E8021092ED021092EC
:10072000EC028385682B8DE893E059DF8091EC0221
:10073000813208F046C09091EB029111FCCF92E01B
:100740009093EB0291E09093EA029FEF9093C602A0
:100750001092C5028093C402A8ECB2E024EA32E011
:10076000F9019E2F921B981718F49D919193F9CF40
:100770001092A3028091A302CC0FC82BC093A302B6
:100780008091E902813061F41092E9028091A30224
:100790008093BB008091BC0083FDF8CF85EC01C045
:1007A00085EE8093BC008091EB028230E1F3809172
:1007B000C6028F3F31F08091C602803211F08091E5
:1007C000C6021092ED021092EC021092C702CF9175
:1007D00008950F931F93CF938C01C62F96DF6C2F34
:1007E0006460C80192DF6C2F6B7FC8018EDF83ECE1
:1007F00090E00197F1F7CF911F910F910895FF922B
:100800000F931F93CF93DF931F92CDB7DEB78C0169
:10081000F62E962F907F692F642BC8014983D9DF6C
:1008200080E1F89EB00111244981642BC8010F902A
:10083000DF91CF911F910F91FF90CBCF41E0DFDF90
:1008400081E090E008951F920F920FB60F9211244D
:100850000F900FBE0F901F9018951F920F920FB61A
:100860000F9211240BB60F922F933F934F935F93E8
:100870006F937F938F939F93AF93BF93EF93FF9368
:100880008091B900887F803609F49CC068F5883271
:1008900009F45BC090F4803109F454C038F4882323
:1008A00009F4F6C0883009F44DC0F5C0883109F468
:1008B0004CC0803209F45DC0EEC0803409F468C0D9
:1008C00048F4803309F455C0883309F0E4C08093BC
:1008D000C602D8C0803509F44FC0883509F45DC020
:1008E000883409F0D8C0D6C0883909F4C7C0A8F444
:1008F000883709F467C038F4883609F463C0803754
:1009000009F460C0C8C0883809F4B8C0803909F457
:100910005FC0803809F0BFC05BC0803B09F486C06F
:1009200038F4803A09F466C0883A09F47FC0B3C04D
:10093000803C09F4A7C0883C09F4A4C0883B09F4B2
:100940008AC0A9C08091A30210C09091C502809175
:10095000C402981770F5E091C50281E08E0F809374
:10096000C502F0E0EC55FD4F80818093BB0085EC23
:1009700086C08093C6028EC0E091C50281E08E0FD2
:100980008093C5028091BB00F0E0EC55FD4F808361
:100990009091C5028091C4026EC0E091C50281E0D1
:1009A0008E0F8093C5028091BB00F0E0EC55FD4FA7
:1009B00080838091EA0281116DC081E08093E90219
:1009C00084EA61C083E08093EB021092A002CFCF53
:1009D0008091A002803208F051C0E091A00281E035
:1009E0008E0F8093A0028091BB00F0E0E058FD4F95
:1009F0008083BDCF85EC8093BC001092EB02809188
:100A0000A002803230F4E091A002F0E0E058FD4F07
:100A100010826091A00270E0E0917E02F0917F026E
:100A200080E892E019951092A00235C084E080938E
:100A3000EB0210927D0210927C02E0917A02F0911A
:100A40007B02199580917C02811105C081E0809321
:100A50007C0210925A02E0917D0281E08E0F809319
:100A60007D02F0E0E65AFD4F80818093BB009091BB
:100A70007D0280917C02981708F479CF85E88093F5
:100A8000BC0009C085EC8093BC001092EB0203C04F
:100A90001092C60243DDFF91EF91BF91AF919F91FC
:100AA0008F917F916F915F914F913F912F910F9017
:100AB0000BBE0F900FBE0F901F90189596E0899F68
:100AC000D0011124AB55BC4F90967C936E935F97E9
:100AD00091E091969C93919790911104E09112046A
:100AE000F0911304992339F0309751F0811108C027
:100AF0008091C10304C0309719F05C968C911994D1
:100B0000089590E0FC013197E231F10508F04DC005
:100B10008827EE58FF4F8F4F29C5809180008F772F
:100B200003C0809180008F7D809380000895809124
:100B30008000877FF9CF84B58F7702C084B58F7D21
:100B400084BD08958091B0008F7703C08091B0007C
:100B50008F7D8093B0000895809190008F7707C0BB
:100B6000809190008F7D03C080919000877F80935B
:100B7000900008958091A0008F7707C08091A00019
:100B80008F7D03C08091A000877F8093A00008958F
:100B9000809120018F7707C0809120018F7D03C055
:100BA00080912001877F8093200108953FB7F894BA
:100BB0008091190490911A04A0911B04B0911C0417
:100BC00026B5A89B05C02F3F19F00196A11DB11DA8
:100BD0003FBFBA2FA92F982F8827820F911DA11DE3
:100BE000B11DBC01CD0142E0660F771F881F991F20
:100BF0004A95D1F708958F929F92AF92BF92CF926C
:100C0000DF92EF92FF926B017C01D0DF4B015C0120
:100C1000C114D104E104F104E9F0C8DFDC01CB0127
:100C200088199909AA09BB09883E9340A105B10515
:100C300078F321E0C21AD108E108F10888EE880EA5
:100C400083E0981EA11CB11CC114D104E104F1047D
:100C500021F7DECFFF90EF90DF90CF90BF90AF9065
:100C60009F908F900895CF93DF93282F30E0F90164
:100C7000EE51FE4F8491F901E456FE4FD491F901F3
:100C8000EA5AFE4FC491CC2389F081113ADFEC2F50
:100C9000F0E0EE0FFF1FE45CFE4FA591B491EC91E4
:100CA000ED2381E090E021F480E002C080E090E05C
:100CB000DF91CF9108951F93CF93DF93282F30E0DA
:100CC000F901EE51FE4F8491F901E456FE4FD491A3
:100CD000F901EA5AFE4FC491CC23C1F0162F8111BD
:100CE00010DFEC2FF0E0EE0FFF1FEE5DFE4FA59141
:100CF000B4918FB7F894111105C09C91ED2FE09538
:100D0000E92302C0EC91ED2BEC938FBFDF91CF91E3
:100D10001F910895CF93DF931092EF021092EE028D
:100D20001092ED021092EC021092EB0281E080939F
:100D3000EA021092E90261E084E1BDDF61E085E151
:100D4000BADF8091B9008E7F8093B9008091B9009D
:100D50008D7F8093B90088E48093B80085E4809308
:100D6000BC0010929E038091A303823018F098E09B
:100D700090939E038093A10362E370E080E090E093
:100D80003ADF6091A40389E993E0BFDC68EE73E089
:100D900080E090E030DF60E389E993E01ADDCBE4A6
:100DA000D6E4CE010197F1F760E389E993E011DD24
:100DB0002197F1F760E389E993E00BDD83E592E0A9
:100DC0000197F1F760E289E993E003DD60919E030A
:100DD000606240E089E993E012DD84E080939F0344
:100DE00040E06CE089E993E00ADD40E061E089E9F8
:100DF00093E005DDCBE3DFE1CE010197F1F786E07B
:100E00008093A00340E066E089E993E0F8DC40E0ED
:100E100062E089E993E0F3DC2197F1F7DF91CF916C
:100E20000895CF93DF9390E0FC01E456FE4F2491A8
:100E3000FC01EA5AFE4F8491882361F190E0880F0B
:100E4000991FFC01E85FFE4FC591D491FC01EE5D56
:100E5000FE4FA591B491611109C09FB7F8948881A4
:100E6000209582238883EC912E230BC0623061F49D
:100E70009FB7F8943881822F809583238883EC91E3
:100E80002E2B2C939FBF06C08FB7F894E8812E2B92
:100E900028838FBFDF91CF9108952FB7F894609189
:100EA00015047091160480911704909118042FBFB7
:100EB00008950F931F93CF93DF93C82FD62F86E00B
:100EC000C89FF0011124EB55FC4F11A2878D90A112
:100ED00081309105E1F01CF4892B49F03FC082304C
:100EE000910591F10397D1F560E070E031C0662380
:100EF000A9F161E070E08C2FE1DDCFDF6093FD03AD
:100F00007093FE038093FF039093000427C0C5DF16
:100F10000091FD031091FE032091FF033091000426
:100F2000AB01BC01401B510B620B730B80910F0492
:100F300090911004A0E0B0E084179507A607B707CA
:100F400018F462E070E004C0D11108C063E070E002
:100F50008C2FDF91CF911F910F91B0CDDF91CF9169
:100F60001F910F9108951F920F920FB60F921124A7
:100F70002F933F938F939F93AF93BF9380911504CB
:100F800090911604A0911704B091180430911404A4
:100F900023E0230F2D3720F40196A11DB11D05C0BC
:100FA00026E8230F0296A11DB11D209314048093FF
:100FB000150490931604A0931704B093180480911D
:100FC000190490911A04A0911B04B0911C0401967D
:100FD000A11DB11D8093190490931A04A0931B04C2
:100FE000B0931C04BF91AF919F918F913F912F912E
:100FF0000F900FBE0F901F901895789484B5826063
:1010000084BD84B5816084BD85B5826085BD85B5AC
:10101000816085BD80916E00816080936E0010922A
:1010200081008091810082608093810080918100A5
:101030008160809381008091800081608093800036
:101040008091B10084608093B1008091B000816094
:101050008093B00080919100826080939100809194
:1010600091008160809391008091900081608093D5
:1010700090008091A10082608093A1008091A100E6
:1010800081608093A1008091A00081608093A00086
:1010900080912101826080932101809121018160F2
:1010A00080932101809120018160809320018091B3
:1010B0007A00846080937A0080917A0082608093C5
:1010C0007A0080917A00816080937A0080917A0022
:1010D000806880937A001092C1001CDE1BDEE091D4
:1010E0000003F091010382E08083E091FC02F09123
:1010F000FD021082E091FE02F091FF0280E1808308
:1011000010920803E0910403F091050386E08083C8
:10111000E0910203F0910303808180618083E0917C
:101120000203F0910303808188608083E0910203D1
:10113000F0910303808180688083E0910203F09145
:10114000030380818F7D8083412C512C3201439495
:10115000CC24CA94DC2C81E0809311049EDE0091A3
:101160000104109102042091030430910404AB01A6
:10117000BC01401B510B620B730B80910D049091CD
:101180000E04A0E0B0E084179507A607B70708F0A3
:1011900032C1C0E080910B04C81758F4E0910704F5
:1011A000F0910804EC0FF11D62E080813ADECF5F20
:1011B000F1CF912C80910C04981608F05AC0092D9B
:1011C00010E0E0910904F0910A04E00FF11F61E0E2
:1011D000808127DEE0910904F0910A04E00FF11FFD
:1011E00060E0808168DDD301C201092C04C0880F52
:1011F000991FAA1FBB1F0A94D2F75C017C01E094DF
:10120000F094812C80910B048816F0F4C82DD0E066
:10121000E0910704F0910804EC0FFD1F808123DDAD
:101220002496CC0FDD1FCB55DC4F892B29F4888108
:1012300099818A299B2904C0888199818E219F21C7
:10124000998388838394DECFE0910904F0910A04A6
:10125000E00FF11F61E080812EDD80910904909103
:101260000A04FC01E00FF11F60E08081DADD939455
:10127000A1CFE1ECF3E083819481892B21F41082EA
:10128000D282C1821582369683E0ED3FF80799F746
:1012900010E006E080910B04181708F051C0F12C03
:1012A000C12FD0E0CC0FDD1FC355DC4F20910C04C3
:1012B000F21608F043C0688179810F2C02C0769540
:1012C00067950A94E2F761707727129F90011124C5
:1012D0002F0D311DE0910504F0910604E20FF31F7C
:1012E000A081E5EAF3E080E0458D568D4217530773
:1012F00011F461701AC08F5F36968A30A9F7672B98
:10130000D9F0E1ECF3E080E090E0408141110FC0C2
:10131000089FF001099FF00D1124EB55FC4FA48F9D
:10132000368F258F10A2178E61E0C3DD05C00196B0
:1013300036968A30910549F7F394B8CF1F5FAACF4C
:1013400080E090E0C0E0FC01EB55FC4F21A12111B1
:10135000C1E006968C339105B1F79FDD60930104DF
:10136000709302048093030490930404CC2309F443
:1013700042C08091C603882309F43DC08091C40314
:101380009091C5030197B9F5C091C103CC23A9F190
:1013900088E08093A40360E089E993E0B6D940E057
:1013A00060E889E993E02BDA4BE050E06AE472E010
:1013B00089E993E00E944601E0919903F0919A0334
:1013C0000190F081E02D6C2F89E993E01995E0916F
:1013D000F002F091F1020190F081E02D6C2F80EF8E
:1013E00092E0199542E050E066E572E080EF92E00D
:1013F0000E94460102C01092110432D8ACCE109265
:10140000F3021092F20288EE93E0A0E0B0E0809345
:10141000F4029093F502A093F602B093F7022CE148
:1014200032E03093F1022093F00225EC30E030936B
:10143000FD022093FC0224EC30E03093FF02209365
:10144000FE0220EC30E0309301032093000321ECF6
:1014500030E0309303032093020322EC30E030931A
:1014600005032093040326EC30E030930703209318
:1014700006031092090310920A0310920B031092B4
:101480000C031092900310928F038093910390931A
:101490009203A0939303B09394038CE292E0909311
:1014A0008E0380938D031092A7031092AB031092CA
:1014B000AA031092AC0384E492E09093A603809375
:1014C000A50380E090E0FC01EB55FC4F148E10A2C8
:1014D000178E11A206968C339105A9F784E092E04D
:1014E000909308048093070480E092E090930A04AC
:1014F0008093090484E080930B0480930C0488E0BB
:1015000092E090930604809305048AE090E0909323
:101510000E0480930D0484EF91E090931004809367
:101520000F041092130410921204109201041092EE
:1015300002041092030410920404109211041092F9
:101540009C0310929B038CE392E090939A03809308
:10155000990387E280939D0380E18093A20382E058
:101560008093A30388E08093A4030895EE0FFF1FE8
:10157000881F8BBF0790F691E02D199481E090E0D1
:08158000F89400C0F894FFCFBD
:101588001E20222416181A1C3132334134353642B3
:10159800373839432A30234400000000C901460186
:1015A8009301710185010F0200000000EF02C002E3
:1015B8008602770269026802000000001E044601E4
:1015C800000000001D03200323036B65795072653A
:0A15D800737365643A000D0A000009
:00000001FF
