:1000000007C1000033C1000031C100002FC1000052
:100010002DC100002BC1000029C1000027C1000034
:1000200025C1000023C1000021C100001FC1000044
:100030001DC100001BC1000019C1000017C1000054
:1000400015C1000013C1000011C100000FC1000064
:100050000DC100000BC1000009C10000E7C2000093
:1000600005C1000003C1000001C10000FFC0000085
:10007000FDC00000FBC00000F9C00000F7C0000098
:10008000F5C00000F3C00000F1C00000EFC00000A8
:10009000EDC00000EBC00000E9C0000011C300008B
:1000A000E5C00000E3C00000E1C00000DFC00000C8
:1000B000DDC00000DBC00000D9C00000D7C00000D8
:1000C000D5C00000D3C00000D1C00000CFC00000E8
:1000D000CDC00000CBC00000C9C00000C7C00000F8
:1000E000C5C000006501680157015B015F019F0108
:1000F0006C01700176017A017E01840188018C0116
:100100009F01920196019A0100002100240027001E
:100110002A002D0030003300010100000401070116
:100120000A0100002200250028002B002E003100CB
:10013000340002010000050108010B010505050559
:10014000070508080808020202020A0A080804044F
:10015000040401010101010101010303030303037D
:100160000303040707070C0C0C0C0C0C0C0C02020C
:10017000020206060606060606060B0B0B0B0B0B09
:100180000B0B010210202008081020401020408096
:10019000020102010804020101020408102040804B
:1001A00080402010080402018004020180402010D9
:1001B0000804020108040201010204081020408022
:1001C000010204081020408000000A0B02090C0DF7
:1001D0000E080703040100000000000000000000FA
:1001E000000000000000000000000000000000000F
:1001F00000000000121110000000000000000000CC
:100200000000000000000000000000000000910459
:1002100011241FBECFEFD1E2DEBFCDBF00E00CBF87
:1002200012E0A0E0B2E0EAE8FAE000E00BBF02C0B2
:1002300007900D92A031B107D9F722E0A0E1B2E01A
:1002400001C01D92A739B207E1F711E0C8E0D1E083
:1002500000E005C021970109802FFE0108D4C730B6
:10026000D10780E00807B1F782D30DC4C9CE362F7D
:1002700090E0FC01E853FE4F4491FC01EE57FE4F25
:100280002491FC01E45CFE4F9491992309F46AC027
:10029000442309F454C050E0FA013197E231F105EA
:1002A00008F04DC08827EE58FF4F8F4FE0C3809174
:1002B00080008F7707C0809180008F7D03C0809180
:1002C0008000877F809380003AC084B58F7702C01A
:1002D00084B58F7D84BD33C08091B0008F7703C01B
:1002E0008091B0008F7D8093B00029C080919000F4
:1002F0008F7707C0809190008F7D03C08091900020
:10030000877F809390001BC08091A0008F7707C0EB
:100310008091A0008F7D03C08091A000877F809393
:10032000A0000DC0809120018F7707C0809120012F
:100330008F7D03C080912001877F80932001E92F6A
:10034000F0E0EE0FFF1FEE5DFE4FA591B4918FB769
:10035000F894EC91311103C020952E2301C02E2B6F
:100360002C938FBF0895CF93DF9390E0FC01EE575D
:10037000FE4F2491FC01E45CFE4F8491882361F1DF
:1003800090E0880F991FFC01E85FFE4FC591D49162
:10039000FC01EE5DFE4FA591B491611109C09FB7BC
:1003A000F8948881209582238883EC912E230BC0BA
:1003B000623061F49FB7F8943881822F809583234F
:1003C0008883EC912E2B2C939FBF06C08FB7F89497
:1003D000E8812E2B28838FBFDF91CF9108953FB7FF
:1003E000F8948091840290918502A0918602B09148
:1003F000870226B5A89B05C02F3F19F00196A11DC5
:10040000B11D3FBFBA2FA92F982F8827820F911DAA
:10041000A11DB11DBC01CD0142E0660F771F881FF1
:10042000991F4A95D1F708958F929F92AF92BF92EC
:10043000CF92DF92EF92FF92D2DF4B015C018AE014
:10044000C82ED12CE12CF12CCADFDC01CB0188199C
:100450009909AA09BB09883E9340A105B10558F046
:1004600021E0C21AD108E108F10888EE880E83E085
:10047000981EA11CB11CC114D104E104F10421F7A0
:10048000FF90EF90DF90CF90BF90AF909F908F90B4
:100490000895CF92DF92EF92FF920F931F93CF9325
:1004A000DF936C017A018B01C0E0D0E0CE15DF054F
:1004B00089F0D8016D918D01D601ED91FC910190EB
:1004C000F081E02DC6011995892B11F47E0102C03F
:1004D0002196ECCFC701DF91CF911F910F91FF9033
:1004E000EF90DF90CF90089580E090E0892B41F06D
:1004F00080E090E0892B21F00E940000811125C04E
:1005000080E090E0892B41F080E090E0892B21F0A1
:100510000E94000081111CC080E090E0892B41F016
:1005200080E090E0892B21F00E940000811113C02F
:1005300080E090E0892BA1F080E090E0892B81F0B1
:100540000E94000081110AC008950E940000D8CFC7
:100550000E940000E1CF0E940000EACF0C9400004E
:10056000089508958FEF9FEF08958FEF9FEF0895FF
:1005700080917E0290E0919581959109089585ED95
:100580008093BC008091BC0084FDFCCF1092580287
:10059000089540913202262F30E0240F311D213280
:1005A0003105DCF4209158022430C9F4FC0180E0CC
:1005B00090E0861758F4309132022191DC01A05F5F
:1005C000BD4FA30FB11D2C930196F3CF8091320242
:1005D000680F6093320280E0089581E0089582E020
:1005E0000895CF93DF931F921F92CDB7DEB7CB0153
:1005F000642F49835A83CDDF4981842F5A81952FF7
:100600000F900F90DF91CF910895CF93DF931F92BA
:10061000CDB7DEB7698361E0CE010196BADF81E034
:1006200090E00F90DF91CF91089529D21F920F9201
:100630000FB60F9211242F933F938F939F93AF93F5
:10064000BF938091800290918102A0918202B0912B
:10065000830230917F0223E0230F2D3720F401968F
:10066000A11DB11D05C026E8230F0296A11DB11DD5
:1006700020937F028093800290938102A093820254
:10068000B09383028091840290918502A0918602AA
:10069000B09187020196A11DB11D809384029093B1
:1006A0008502A0938602B0938702BF91AF919F917C
:1006B0008F913F912F910F900FBE0F901F90189523
:1006C0001F920F920FB60F9211240BB60F922F9319
:1006D0003F934F935F936F937F938F939F93AF93CA
:1006E000BF93EF93FF938091B900887F803609F420
:1006F0009CC068F5883209F45BC090F4803109F43D
:1007000054C038F4882309F4F6C0883009F44DC089
:10071000F5C0883109F44CC0803209F45DC0EEC0E8
:10072000803409F468C048F4803309F455C0883334
:1007300009F0E4C080935702D8C0803509F44FC057
:10074000883509F45DC0883409F0D8C0D6C088392E
:1007500009F4C7C0A8F4883709F467C038F48836AC
:1007600009F463C0803709F460C0C8C0883809F450
:10077000B8C0803909F45FC0803809F0BFC05BC0E1
:10078000803B09F486C038F4803A09F466C0883AA0
:1007900009F47FC0B3C0803C09F4A7C0883C09F4C9
:1007A000A4C0883B09F48AC0A9C080917D0210C012
:1007B00090917C0280917B02981770F5E0917C0209
:1007C00081E08E0F80937C02F0E0E55AFD4F80813E
:1007D0008093BB0085EC86C0809357028EC0E09169
:1007E0007C0281E08E0F80937C028091BB00F0E060
:1007F000E55AFD4F808390917C0280917B026EC010
:10080000E0917C0281E08E0F80937C028091BB009E
:10081000F0E0E55AFD4F808380915A0281116DC04E
:1008200081E08093590284EA61C083E0809358029A
:1008300010925602CFCF80915602803208F051C0FC
:10084000E091560281E08E0F809356028091BB00AA
:10085000F0E0EA5CFD4F8083BDCF85EC8093BC0067
:100860001092580280915602803230F4E091560284
:10087000F0E0EA5CFD4F10826091560270E0E0917A
:100880003402F091350286E392E0199510925602F7
:1008900035C084E0809358021092330210923202E5
:1008A000E0913002F091310219958091320281116C
:1008B00005C081E08093320210921002E091330271
:1008C00081E08E0F80933302F0E0E05FFD4F808186
:1008D0008093BB009091330280913202981708F404
:1008E00079CF85E88093BC0009C085EC8093BC007B
:1008F0001092580203C01092570241DEFF91EF910F
:10090000BF91AF919F918F917F916F915F914F9127
:100910003F912F910F900BBE0F900FBE0F901F9025
:100920001895CF93DF93E8E8F2E01382128288EE05
:1009300093E0A0E0B0E084839583A683B78384E04E
:1009400092E091838083C4E9D2E083E0888382E0EF
:10095000898360E083E007DD60E0898104DD60E099
:10096000888185DC60E08981DF91CF9180CC7894AB
:1009700084B5826084BD84B5816084BD85B58260A4
:1009800085BD85B5816085BD80916E008160809355
:100990006E001092810080918100826080938100BE
:1009A00080918100816080938100809180008160CE
:1009B000809380008091B10084608093B100809129
:1009C000B00081608093B00080919100826080933C
:1009D00091008091910081608093910080919000BE
:1009E0008160809390008091A10082608093A1003B
:1009F0008091A10081608093A1008091A00081601E
:100A00008093A000809121018260809321018091D8
:100A10002101816080932101809120018160809378
:100A2000200180917A00846080937A0080917A001E
:100A3000826080937A0080917A00816080937A004E
:100A400080917A00806880937A001092C10060E003
:100A500082E089DC61E082E00ADC61E082E083DC44
:100A6000E3DC60E082E07FDCDFDC3EDDF6CFEE0F32
:100A7000FF1F881F8BBF0790F691E02D199481E02E
:0A0A800090E0F89400C0F894FFCF56
:100A8A00000000000503F102B802B502B202B10289
:00000001FF
