:1000000014C1000040C100003EC100003CC100001E
:100010003AC1000038C1000036C1000034C1000000
:1000200032C1000030C100002EC100002CC1000010
:100030002AC1000028C1000026C1000024C1000020
:1000400022C1000020C100001EC100001CC1000030
:100050001AC1000018C1000016C10000B1C30000A1
:1000600012C1000020C40000F5C300000CC1000054
:100070000AC1000008C1000006C1000004C1000060
:1000800002C1000000C10000FEC00000FCC0000072
:10009000FAC00000F8C00000F6C00000F4C0000084
:1000A000F2C00000F0C00000EEC00000ECC0000094
:1000B000EAC00000E8C00000E6C00000E4C00000A4
:1000C000E2C00000E0C00000DEC00000DCC00000B4
:1000D000DAC00000D8C00000D6C00000D4C00000C4
:1000E000D2C0000081018401730177017D01BB0151
:1000F00088018C01920196019A01A001A401A80136
:10010000BB01AE01B201B6010000210024002700AE
:100110002A002D0030003300010100000401070116
:100120000A0100002200250028002B002E003100CB
:10013000340002010000050108010B01000020004D
:100140002300260029002C002F00320000010000AF
:10015000030106010901050505050705080808084A
:10016000020202020A0A080804040404010101014F
:10017000010101010303030303030303040707074A
:100180000C0C0C0C0C0C0C0C0202020206060606EF
:10019000060606060B0B0B0B0B0B0B0B01021020BC
:1001A00020080810204010204080020102010804AD
:1001B0000201010204081020408080402010080441
:1001C000020180040201804020100804020108049A
:1001D00002010102040810204080010204081020DE
:1001E000408000000A0B02090C0D0E0807030401F1
:1001F00000000000000000000000000000000000FF
:1002000000000000000000000000000000001211CB
:1002100010000000000000000000000000000000CE
:100220000000000000000000890411241FBECFEF71
:10023000D1E2DEBFCDBF00E00CBF12E0A0E0B2E033
:10024000E6E0FEE000E00BBF02C007900D92A6338F
:10025000B107D9F723E0A6E3B2E001C01D92AB34A9
:10026000B207E1F711E0C5E1D1E000E005C0219758
:100270000109802FFE01B9D5C431D10780E00807FC
:10028000B1F7D6D3BEC5BCCE96E0899FD00111246C
:10029000A452BD4F90967C936E935F9791E0919698
:1002A0009C93919790914803E0914903F0914A0300
:1002B000992339F0309751F0811108C08091F802EC
:1002C00004C0309719F05C968C911994089590E0D1
:1002D000FC013197E231F10508F04DC08827EE5856
:1002E000FF4F8F4F82C5809180008F7703C0809130
:1002F00080008F7D80938000089580918000877FAB
:10030000F9CF84B58F7702C084B58F7D84BD089501
:100310008091B0008F7703C08091B0008F7D809373
:10032000B0000895809190008F7707C08091900071
:100330008F7D03C080919000877F80939000089507
:100340008091A0008F7707C08091A0008F7D03C0AF
:100350008091A000877F8093A00008958091200164
:100360008F7707C0809120018F7D03C0809120018D
:10037000877F809320010895CF93DF93282F30E06B
:10038000F901EE51FE4F8491F901E456FE4FD491EC
:10039000F901EA5AFE4FC491CC2389F0811197DF0D
:1003A000EC2FF0E0EE0FFF1FE45CFE4FA591B4913F
:1003B000EC91ED2381E090E021F480E002C080E048
:1003C00090E0DF91CF9108951F93CF93DF93282F73
:1003D00030E0F901EE51FE4F8491F901E456FE4FF1
:1003E000D491F901EA5AFE4FC491CC23C1F0162FE3
:1003F00081116DDFEC2FF0E0EE0FFF1FEE5DFE4F81
:10040000A591B4918FB7F894111105C09C91ED2F6F
:10041000E095E92302C0EC91ED2BEC938FBFDF91C7
:10042000CF911F910895CF93DF9390E0FC01E456A4
:10043000FE4F2491FC01EA5AFE4F8491882361F11A
:1004400090E0880F991FFC01E85FFE4FC591D491A1
:10045000FC01EE5DFE4FA591B491611109C09FB7FB
:10046000F8948881209582238883EC912E230BC0F9
:10047000623061F49FB7F8943881822F809583238E
:100480008883EC912E2B2C939FBF06C08FB7F894D6
:10049000E8812E2B28838FBFDF91CF9108952FB74E
:1004A000F89460913B0270913C0280913D029091E2
:1004B0003E022FBF08950F931F93CF93DF93C82F52
:1004C000D62F86E0C89FF0011124E452FD4F11A2FF
:1004D000878D90A181309105E1F01CF4892B49F0C2
:1004E0003FC08230910591F10397D1F560E070E053
:1004F00031C06623A9F161E070E08C2FC5DECFDF4B
:1005000060933403709335038093360390933703DD
:1005100027C0C5DF009134031091350320913603C5
:1005200030913703AB01BC01401B510B620B730BC5
:100530008091460390914703A0E0B0E084179507AF
:10054000A607B70718F462E070E004C0D11108C034
:1005500063E070E08C2FDF91CF911F910F9194CECB
:10056000DF91CF911F910F910895862F642F5BCF5C
:10057000862F642F29CF862FFFCECF92DF92EF9266
:10058000FF920F931F93CF93DF936C017A018B013E
:10059000C0E0D0E0CE15DF0589F0D8016D918D0166
:1005A000D601ED91FC910190F081E02DC6011995E5
:1005B000892B11F47E0102C02196ECCFC701DF9197
:1005C000CF911F910F91FF90EF90DF90CF90089502
:1005D000FC01918D828D981761F0828DDF01A80F4B
:1005E000B11D5D968C91928D9F5F9F73928F90E06D
:1005F00008958FEF9FEF0895FC01918D828D9817DC
:1006000031F0828DE80FF11D858D90E008958FEF18
:100610009FEF0895FC01918D228D892F90E0805CE1
:100620009F4F821B91098F73992708958FE392E062
:10063000F1DF21E0892B09F420E0822F0895FC01ED
:10064000848DDF01A80FB11DA35ABF4F2C91848D5B
:1006500090E001968F739927848FA689B7892C9390
:10066000A089B1898C9180648C93938D848D98132B
:1006700006C00288F389E02D80818F7D80830895F4
:10068000EF92FF920F931F93CF93DF93EC0181E0E2
:10069000888F9B8D8C8D981305C0E889F98980819E
:1006A00085FD23C0F62E0B8D10E00F5F1F4F0F73DB
:1006B0001127E02E8C8DE8120BC00FB607FCFACF85
:1006C000E889F989808185FFF5CFCE01B8DFF2CFC7
:1006D0008B8DFE01E80FF11DE35AFF4FF0820B8F67
:1006E000EA89FB898081806207C0EE89FF89608387
:1006F000E889F98980818064808381E090E0DF91DE
:10070000CF911F910F91FF90EF900895CF93DF93BA
:10071000EC01888D8823C1F0EA89FB89808185FD01
:1007200005C0A889B9898C9186FD0EC00FB607FC5B
:10073000F5CF808185FFF2CFA889B9898C9185FF9B
:10074000EDCFCE017CDFE8CFDF91CF91089580E03F
:1007500090E0892B19F06ADF811125C080E090E0DC
:10076000892B41F080E090E0892B21F00E9400006D
:1007700081111CC080E090E0892B41F080E090E086
:10078000892B21F00E940000811113C080E090E0CD
:10079000892BA1F080E090E0892B81F00E9400007D
:1007A00081110AC008950E940000D8CF0E94000065
:1007B000E1CF0E940000EACF0C94000008951DD301
:1007C0001F920F920FB60F9211242F933F938F9386
:1007D0009F93AF93BF9380913B0290913C02A09175
:1007E0003D02B0913E0230913A0223E0230F2D37B3
:1007F00020F40196A11DB11D05C026E8230F029625
:10080000A11DB11D20933A0280933B0290933C02BC
:10081000A0933D02B0933E02809136029091370240
:10082000A0913802B09139020196A11DB11D8093AB
:10083000360290933702A0933802B0933902BF91E9
:10084000AF919F918F913F912F910F900FBE0F907D
:100850001F9018951F920F920FB60F9211240BB68E
:100860000F922F933F934F935F936F937F938F9349
:100870009F93AF93BF93EF93FF938FE392E0DFDEFD
:10088000FF91EF91BF91AF919F918F917F916F9168
:100890005F914F913F912F910F900BBE0F900FBE24
:1008A0000F901F9018951F920F920FB60F92112460
:1008B0000BB60F922F938F939F93EF93FF93E0913B
:1008C0004F02F09150028081E0915502F091560262
:1008D00082FD12C09081809158028F5F8F732091AA
:1008E0005902821751F0E0915802F0E0E15CFD4FAF
:1008F000958F8093580201C08081FF91EF919F9165
:100900008F912F910F900BBE0F900FBE0F901F90E5
:100910001895109242021092410288EE93E0A0E0F6
:10092000B0E08093430290934402A0934502B093B9
:1009300046028CE192E09093400280933F0285EC66
:1009400090E090934C0280934B0284EC90E0909363
:100950004E0280934D0280EC90E090935002809381
:100960004F0281EC90E0909352028093510282EC0E
:1009700090E0909354028093530286EC90E0909321
:10098000560280935502109258021092590210920A
:100990005A0210925B021092DE021092E202109252
:1009A000E1021092E3028CE292E09093DD028093E8
:1009B000DC0280E090E0FC01E452FD4F148E10A2B6
:1009C000178E11A206968C339105A9F784E092E068
:1009D00090933F0380933E0380E092E09093410325
:1009E0008093400384E0809342038093430388E034
:1009F00092E090933D0380933C038AE090E09093D3
:100A000045038093440384EF91E0909347038093E0
:100A1000460310924A031092490310923803109231
:100A2000390310923A0310923B0310924803089541
:100A3000789484B5826084BD84B5816084BD85B5B9
:100A4000826085BD85B5816085BD80916E008160C5
:100A500080936E001092810080918100826080936B
:100A6000810080918100816080938100809180006D
:100A70008160809380008091B10084608093B10098
:100A80008091B00081608093B0008091910082607D
:100A9000809391008091910081608093910080917A
:100AA00090008160809390008091A100826080938B
:100AB000A1008091A10081608093A1008091A0009D
:100AC00081608093A0008091210182608093210148
:100AD00080912101816080932101809120018160BA
:100AE0008093200180917A00846080937A008091C5
:100AF0007A00826080937A0080917A00816080938E
:100B00007A0080917A00806880937A001092C10008
:100B1000E0914F02F091500282E08083E0914B021D
:100B2000F0914C021082E0914D02F0914E0280E172
:100B3000808310925702E0915302F091540286E0B4
:100B40008083E0915102F091520280818061808324
:100B5000E0915102F0915202808188608083E0919F
:100B60005102F0915202808180688083E0915102AD
:100B7000F091520280818F7D8083412C512C320173
:100B80004394CC24CA94DC2C81E08093480387DC16
:100B9000009138031091390320913A0330913B03BF
:100BA000AB01BC01401B510B620B730B80914403E2
:100BB00090914503A0E0B0E084179507A607B7071A
:100BC00008F00FC1C0E080914203C81758F4E091CB
:100BD0003E03F0913F03EC0FF11D62E0808123DCC6
:100BE000CF5FF1CF912C80914303981608F05AC043
:100BF000092D10E0E0914003F0914103E00FF11F57
:100C000061E0808110DCE0914003F0914103E00F4E
:100C1000F11F60E08081D8DBD301C201092C04C040
:100C2000880F991FAA1FBB1F0A94D2F75C017C0191
:100C3000E094F094812C809142038816F0F4C82D42
:100C4000D0E0E0913E03F0913F03EC0FFD1F808167
:100C500093DB2496CC0FDD1FC452DD4F892B29F482
:100C6000888199818A299B2904C0888199818E2154
:100C70009F21998388838394DECFE0914003F09194
:100C80004103E00FF11F61E080819EDB8091400312
:100C900090914103FC01E00FF11F60E08081C3DB14
:100CA0009394A1CFE8EFF2E083819481892B21F422
:100CB0001082D282C1821582369683E0E433F8072F
:100CC00099F710E006E080914203181708F051C030
:100CD000F12CC12FD0E0CC0FDD1FCC51DD4F209186
:100CE0004303F21608F043C0688179810F2C02C0DB
:100CF000769567950A94E2F761707727129F9001C5
:100D000011242F0D311DE0913C03F0913D03E20FC2
:100D1000F31FA081ECEDF2E080E0458D568D421787
:100D2000530711F461701AC08F5F36968A30A9F7A5
:100D3000672BD9F0E8EFF2E080E090E040814111CC
:100D40000FC0089FF001099FF00D1124E452FD4FE0
:100D5000A48F368F258F10A2178E61E0ACDB05C003
:100D6000019636968A30910549F7F394B8CF1F5F04
:100D7000AACF80E090E0C0E0FC01E452FD4F21A149
:100D80002111C1E006968C339105B1F788DB6093A1
:100D900038037093390380933A0390933B03CC2339
:100DA00001F18091FD028823E1F08091FB02909196
:100DB000FC020197B1F46091F8026623A1F0E09182
:100DC0003F02F09140020190F081E02D8FE392E02C
:100DD000199542E050E062E372E08FE392E0CDDBF0
:100DE00002C010924803B3DCCFCEEE0FFF1F881F66
:100DF0008BBF0790F691E02D199481E090E0F89474
:060E000000C0F894FFCFD2
:100E060011100F0E15141312313233413435364298
:100E1600373839432A302344000000004003BD021E
:100E26000A03E802FC02860300000000B502B802CD
:060E3600BB020D0A0000E2
:00000001FF
